S105FFFE0000FD
S12300008E0075BD0290CE0140C601BD015BCE0149C602BD015B8633C6338E0140108E0182
S123002049CE0152BD04001F898E00D2583095BD02904D27058601B7FF01CE0140BD01BADF
S1230040860AB7FF00862AB7FF00860AB7FF00B7FF00CE0149BD01BA860AB7FF00863DB7A4
S1230060FF00860AB7FF00B7FF00CE0152BD01BA8600B7FF010A3D3D3D204D756C7469704F
S12300806C6963616369C3B36E20646520646F73206D6174726963657320337833203D3DB4
S12300A03D0A496E74726F64757A6361206C6F73206461746F73206465206C6173206D61F2
S12300C074726963657320706F722066696C61730A0000D800E501100A526573756C746130
S12300E0646F3A0A000A4552524F523A204C61732064696D656E73696F6E6573206E6F20FC
S1230100736F6E20636F686572656E7465730A000A4552524F523A20446573626F7264611F
S12301206D69656E746F206465206F637465746F20656E20656C2070726F6365736F0A008F
S123015B34778E01A4BD02901F98BD021C8E01B4BD0290860AB7FF00C6018E01ADBD029097
S123017B1F98BD021C8E01B4BD0290108E01B7BD02538E0003A6A0A7C0301F26F8860AB7E2
S11F019BFF005CC10323D335F70A4D617472697A20000946696C6120003A200063
S12301BA34778E020BBD0290108E0003867CB7FF008620B7FF008E0003E6C0C164240586CC
S12301DA20B7FF00C10A24058620B7FF001F98BD021C8620B7FF00301F26DE867CB7FF00E2
S12301FA860AB7FF00313F26C38E020BBD029035F72B202020202020202020202020202B36
S105021A0A00D4
S1230400347D34061F501F8B35063402840F978935024444444497883404C40FD78B3504A4
S123042054545454D78A109F869689918A27048601205196889790968A40978FD68B3D5CB0
S1230440D78E109E86968B97910F8C0F8D968A9792A684E6A43DD38CDD8C4D27048602205D
S1230460233001968B31A60A9226E6E7C0968F3086968E31A60A9126D0968930860A9026E1
S10B0480C14F210035FD00010C
S12304938E04A9108E04BBCE04CA8663C635BD04008600B7FF010906030805020704010AF8
S11A04B303000B02040C0007010203040504050607080708090A0BAD
S123021C3477CE0000108E00028E02515FA1842505A0845C20F75D26081183000026042016
S123023C073341CB30F7FF003001313F26DE8B30B7FF0035F7640A34744FCE00008E00002F
S123025CF6FF02C10A271AC10D2716C1302512C139220E1E10860A3D1E10C0303A33412037
S123027CDF1183000027071E10E7A01E104C810326C835F434132003B7FF00A68026F93559
S104029C93CA
S90302906A
